:020000040800F2
:100000000050002075220008D5210008DB210008DF
:10001000E1210008E7210008ED21000800000000B0
:10002000000000000000000000000000117E000839
:10003000F321000800000000F17F0008FF21000804
:10004000BD220008BD220008BD220008BD22000814
:10005000BD220008BD220008BD220008BD22000804
:10006000BD220008BD220008BD220008BD220008F4
:10007000BD220008BD220008BD220008BD220008E4
:10008000BD220008BD220008BD220008BD220008D4
:10009000BD220008BD220008BD220008BD220008C4
:1000A000BD22000819220008BD220008BD22000858
:1000B0002D22000841220008BD220008BD220008B0
:1000C000BD220008BD220008BD220008BD22000894
:1000D000BD220008BD22000855220008BD220008EC
:1000E000BD220008BD220008BD220008000000005B
:1000F0000000000000000000000000000000000000
:0C01000000000000000000005FF808F1A3
:1001100010B5054C237833B9044B13B10448AFF341
:1001200000800123237010BD740000200000000037
:10013000B886000808B5034B1BB103490348AFF369
:10014000008008BD0000000078000020B88600088C
:1001500080B500AF00F056FA00BF80BD80B582B018
:1001600000AF0346FB710B4B1B78012B05D10A4BEB
:100170001B78184600F086FA08E0064B1B78022B25
:1001800004D1054B1B78184600F09AFA00BF0837D7
:10019000BD4680BD900000200000002080B582B0E8
:1001A00000AF0346FB71FB792F2B02D9FB79392B6A
:1001B00003D9FB79712B40F0BF80FB79303B412B99
:1001C00000F2B48001A252F823F000BFD50200086B
:1001D000DD020008E5020008ED020008F502000853
:1001E000FD020008050300080D03000815030008C0
:1001F0001D0300082D0300082D0300082D0300082F
:100200002D0300082D0300082D0300082D0300080E
:100210002D0300082D0300082D0300082D030008FE
:100220002D0300082D0300082D0300082D030008EE
:100230002D0300082D0300082D0300082D030008DE
:100240002D0300082D0300082D0300082D030008CE
:100250002D0300082D0300082D0300082D030008BE
:100260002D0300082D0300082D0300082D030008AE
:100270002D0300082D0300082D0300082D0300089E
:100280002D0300082D0300082D0300082D0300088E
:100290002D0300082D0300082D0300082D0300087E
:1002A0002D0300082D0300082D0300082D0300086E
:1002B0002D0300082D0300082D0300082D0300085E
:1002C0002D0300082D0300082D0300082D0300084E
:1002D000250300088C4B00221A7027E08A4B0A2263
:1002E0001A7023E0884B14221A701FE0864B1E22DE
:1002F0001A701BE0844B28221A7017E0824B3222BE
:100300001A7013E0804B3C221A700FE07E4B46229D
:100310001A700BE07C4B50221A7007E07A4B5A227D
:100320001A7003E0784B64221A7000BF764B1B787A
:100330001846FFF713FFE3E0FB79423B342B00F252
:10034000DF8001A252F823F04304000801050008F1
:10035000E1040008010500082D04000879040008E4
:10036000A50400088F040008BB040008010500086C
:1003700059040008010500080105000801050008EE
:100380000105000801050008690400081D040008B3
:1003900001050008F9040008D1040008F104000870
:1003A0000105000801050008010500080105000815
:1003B0000105000801050008010500080105000805
:1003C00001050008010500080105000801050008F5
:1003D00001050008010500080105000801050008E5
:1003E00001050008010500080105000801050008D5
:1003F00001050008010500080105000801050008C5
:1004000001050008010500080105000801050008B4
:100410000105000801050008D904000800F002F9F0
:1004200000F016F9394B00221A7069E000F010F95B
:10043000354B1B78184600F025F9344B01221A7011
:100440005EE000F005F9304B1B78184600F038F9F3
:100450002E4B02221A7053E000F0E4F800F068F925
:100460002A4B00221A704BE000F0DCF800F046F94D
:10047000264B00221A7043E0234B1B78184600F0ED
:1004800001F900F055F9214B01221A7038E01E4B9A
:100490001B78184600F0F6F800F030F91B4B0122EB
:1004A0001A702DE0184B1B78184600F009F900F07F
:1004B0003FF9164B02221A7022E0134B1B781846A4
:1004C00000F0FEF800F01AF9104B02221A7017E043
:1004D000012000F01BFD13E0002000F017FD0FE0ED
:1004E00000F0A0F800F0B4F8084B00221A7007E002
:1004F000012000F0F1FC03E0022000F0EDFC00BF61
:1005000000BF0837BD4680BD0000002090000020DD
:1005100080B582B000AF00F009FD0346012B61D128
:10052000324B1B78012B28D1002000F0B5FC03468C
:100530007B80002000F0C0FC03467B702C4B1B78B6
:10054000002B04D02A4B00221A7000F02DFE294BFC
:100550001B78294AA2FB0323DB08DBB21A46274B90
:100560009B5C9BB27A889A423CD87B78012B39D12C
:1005700000F058F800F06CF834E01C4B1B78022BAC
:1005800028D1032000F088FC0346FB80032000F004
:1005900093FC03467B711A4B1B78002B04D0184B3D
:1005A00000221A7000F00CFE124B1B78124AA2FBBC
:1005B0000323DB08DBB21A46104B9B5C9BB2FA8824
:1005C0009A420FD87B79012B0CD100F02BF800F068
:1005D0003FF807E000F018FE054B01221A70084BA7
:1005E00001221A7000BF0837BD4680BD9000002070
:1005F0000100002000000020CDCCCCCC0400002065
:100600000200002080B500AF054802F09BFE0821E3
:10061000034802F08BFF00F005F800BF80BD00BF6B
:100620008C03002080B500AF01221021064802F0A3
:1006300011FA01228021044802F00CFA034B002237
:10064000DA6300BF80BD00BF000C0140000800401D
:1006500080B500AF00224FF40061084802F0FAF9BB
:1006600000224FF40071064802F0F4F90022402104
:10067000034802F0EFF900BF80BD00BF0008014051
:10068000000C014080B582B000AF0346FB7101222F
:100690001021094802F0DEF900228021064802F00C
:1006A000D9F9FB79C82203FB02F2044BDA6300BFDD
:1006B0000837BD4680BD00BF000C01400008004067
:1006C00080B582B000AF0346FB71002210210948BB
:1006D00002F0C0F901228021064802F0BBF9FB7943
:1006E000C82203FB02F2044BDA6300BF0837BD46A1
:1006F00080BD00BF000C01400008004080B500AF85
:1007000001224FF40061084802F0A4F900224FF4DE
:100710000071064802F09EF901224021034802F0D0
:1007200099F900BF80BD00BF00080140000C0140E6
:1007300080B500AF00224FF40061084802F08AF94A
:1007400001224FF40071064802F084F90122402191
:10075000034802F07FF900BF80BD00BF00080140E0
:10076000000C014080B582B000AF00F0BBFF7860A4
:100770007B68074A934206D3FFF754FF00F0A6FFB9
:10078000044B01221A7000BF0837BD4680BD00BF70
:10079000E06735009100002080B582B000AF124BB9
:1007A0001B78002B09D02820FFF76CFFFFF7C0FF54
:1007B00000F07AFF0C4B00221A7000F093FF786073
:1007C0007B680A4A93420BD9FFF72CFFFFF740FFE3
:1007D00000F07CFF044B01221A70054B02221A70B4
:1007E00000BF0837BD4680BD0F000020FF6918001C
:1007F0009100002080B582B000AF124B1B78002B17
:1008000009D02820FFF73EFFFFF778FF00F04CFFEC
:100810000C4B00221A7000F065FF78607B680A4A72
:1008200093420BD9FFF7FEFEFFF712FF00F04EFFD9
:10083000044B01221A70054B02221A7000BF0837C0
:10084000BD4680BD0F000020FF6918009100002008
:1008500080B582B000AF124B1B78002B09D0282046
:10086000FFF72EFFFFF74AFF00F01EFF0C4B0022A0
:100870001A7000F037FF78607B680A4A93420BD900
:10088000FFF7D0FEFFF7E4FE00F020FF044B01224B
:100890001A70054B03221A7000BF0837BD4680BD91
:1008A0000F0000207F4F12009100002080B582B021
:1008B00000AF124B1B78002B09D02820FFF700FF58
:1008C000FFF736FF00F0F0FE0C4B00221A7000F02C
:1008D00009FF78607B680A4A93420BD9FFF7A2FEB2
:1008E000FFF7B6FE00F0F2FE044B01221A70054B32
:1008F00003221A7000BF0837BD4680BD0F000020DC
:100900007F4F12009100002080B582B000AF03201D
:1009100000F0C2FA0346FB80032000F0CDFA034644
:100920007B71174B1B78002B20D00A20FFF7C8FEE5
:1009300000F046FC124B00221A7017E0032000F072
:10094000ABFA0346FB80032000F0B6FA03467B7146
:10095000FB88282B0AD87B79012B07D1FFF762FE91
:10096000074B01221A70074B04221A70054B1B78A3
:10097000042BE3D100BF00BF0837BD4680BD00BFD8
:100980000F0000209100002080B582B000AF03204E
:1009900000F082FA0346FB80032000F08DFA034644
:1009A0007B71174B1B78002B20D00A20FFF788FEA5
:1009B00000F01EFC124B00221A7017E0032000F01A
:1009C0006BFA0346FB80032000F076FA03467B7146
:1009D000FB881E2B0AD87B79012B07D1FFF722FE5B
:1009E000074B01221A70074B04221A70054B1B7823
:1009F000042BE3D100BF00BF0837BD4680BD00BF58
:100A00000F0000209100002080B582B000AF0220CE
:100A100000F042FA0346FB80032000F03DFA034653
:100A2000BB80022000F048FA0346FB70032000F070
:100A300043FA0346BB70144B1B78002B09D000F01F
:100A4000BFFB2820FFF73CFEFFF772FE0E4B002293
:100A50001A70BB880A2B02D8BB78012B05D0FB8803
:100A6000032B0CD8FB78012B09D1FFF7DBFDFFF737
:100A7000EFFD054B01221A70044B05221A7000BFCE
:100A80000837BD4680BD00BF0F0000209100002048
:100A900080B582B000AF042000F0FEF90346FB8071
:100AA000032000F0F9F90346BB80042000F004FAAB
:100AB0000346FB70032000F0FFF90346BB70144BA4
:100AC0001B78002B09D000F093FB2820FFF7F8FDDE
:100AD000FFF714FE0E4B00221A70BB880A2B02D8B7
:100AE000BB78012B05D0FB88022B0CD8FB78012B9F
:100AF00009D1FFF797FDFFF7ABFD054B01221A70F7
:100B0000044B05221A7000BF0837BD4680BD00BFE8
:100B10000F0000209100002080B582B000AF174B7D
:100B20001B78002B04D000F0BFFD144B00221A707C
:100B300000F0D8FD78607B68114A93420CD3FFF730
:100B400071FDFFF785FD00F0C1FD0C4B01221A700D
:100B50000C4B06221A700CE07B680B4A934205D9B5
:100B60003220FFF78FFDFFF7C9FD02E00A20FFF7F3
:100B700089FD00BF0837BD4680BD00BF0F000020C3
:100B800020D61300910000203F420F0080B582B0B4
:100B900000AF174B1B78002B04D000F085FD144BE1
:100BA00000221A7000F09EFD78607B68114A934223
:100BB0000CD3FFF737FDFFF74BFD00F087FD0C4B23
:100BC00001221A700C4B06221A700CE07B680B4A4B
:100BD000934205D93220FFF755FDFFF7A9FD02E04A
:100BE0000A20FFF74FFD00BF0837BD4680BD00BF9C
:100BF0000F00002020D61300910000203F420F007C
:100C000080B582B000AF00F077F90346FB71FB7945
:100C1000032B36D1394B1B78002B02D1FFF7A2FDF5
:100C200068E0364B1B78012B02D1FFF7B5FD61E080
:100C3000324B1B78022B02D1FFF70AFE5AE02F4BF2
:100C40001B78032B02D1FFF75FFE53E02B4B1B7881
:100C5000042B02D1FFF7D8FE4CE0284B1B78052B64
:100C600002D1FFF759FF45E0244B1B78062B41D1F9
:100C700000F0CAFA214B00221A70002000F02CF973
:100C800038E0FB79042B35D11C4B1B78002B02D1AB
:100C9000FFF768FD2EE0194B1B78012B02D1FFF7FF
:100CA000A9FD27E0154B1B78022B02D1FFF7FEFDB3
:100CB00020E0124B1B78032B02D1FFF765FE19E0F1
:100CC0000E4B1B78042B02D1FFF7E2FE12E00B4B18
:100CD0001B78052B02D1FFF759FF0BE0074B1B7860
:100CE000062B07D100F090FA044B00221A70002066
:100CF00000F0F2F800BF0837BD4680BD910000202B
:100D000080B582B000AF31E0012000F0C5F80346A5
:100D1000FB80012000F0D0F803467B71FB88132B89
:100D20001FD9FB88282B1CD87B79012B19D1144B98
:100D30001B78002B04D000F0B7FC114B00221A7076
:100D400000F0D0FC38603B680E4A93420ED30C4B47
:100D500001221A700C4B01221A70032000F0BCF81B
:100D600004E000F0B3FC064B01221A7000F0C4F856
:100D70000346032BC8D100BF00BF0837BD4680BD66
:100D800011000020A02526001000002080B582B0B0
:100D900000AF31E0052000F07FF80346FB8005201E
:100DA00000F08AF803467B71FB88132B1FD9FB8860
:100DB000282B1CD87B79012B19D1144B1B78002BC5
:100DC00004D000F071FC114B00221A7000F08AFC74
:100DD00038603B680E4A93420ED30C4B01221A70C6
:100DE0000C4B01221A70042000F076F804E000F0A9
:100DF0006DFC064B01221A7000F07EF80346032BAF
:100E0000C8D100BF00BF0837BD4680BD110000201B
:100E1000A02526001000002080B582B000AF00F0B1
:100E20006BF80346FB71FB79012B10D1134B1B7838
:100E3000002B09D0FFF70CFC0A20FFF723FC00F081
:100E4000B3F90E4B00221A70FFF75AFF12E0FB793C
:100E5000022B0FD1094B1B78002B09D0FFF7F8FBB1
:100E60000A20FFF70FFC00F0B7F9044B00221A70BC
:100E7000FFF78CFF00BF0837BD4680BD1000002083
:100E800080B500AF0249034800F0A0F800BF80BD64
:100E9000A00000209400002080B483B000AF03467F
:100EA000FB71FB79034A32F8133018460C37BD4604
:100EB00080BC70479400002080B483B000AF03462C
:100EC000FB71FB79034AD35C18460C37BD4680BCE6
:100ED000704700BFA000002080B483B000AF03467D
:100EE000FB71044AFB79137000BF0C37BD4680BC10
:100EF000704700BFA600002080B400AF024B1B78F3
:100F00001846BD4680BC7047A600002080B483B060
:100F100000AF0346FB71044AFB79137000BF0C3726
:100F2000BD4680BC704700BFA700002080B400AF62
:100F3000024B1B781846BD4680BC7047A7000020B6
:100F400080B582B000AF78603960084A7B68136072
:100F5000074A3B681360064B1B6801221946054887
:100F600003F0EAFC00BF0837BD4680BDB00000209A
:100F7000AC000020D403002080B400AF104B1B68ED
:100F80001B78002B17D00F4B1B681A780E4B1B7861
:100F90009A420CD00B4B1B681A780B4B1A70084BFB
:100FA0001B6800221A70074B1B681B7804E0044B77
:100FB0001B6800221A704E231846BD4680BC70473D
:100FC000B0000020AC000020A800002080B582B056
:100FD00000AF786039603F4A7B6813603E4A3B68E7
:100FE00013603E4A3E4B1046194648231A4607F006
:100FF00001FB3A4B00229A64384B0122DA64394AE9
:10100000394B1046194648231A4607F0F3FA354B78
:1010100000229A64334B0122DA64344A304B104682
:10102000194648231A4607F0E5FA304B04229A6421
:101030002E4B0222DA642E4A294B104619464823C9
:101040001A4607F0D7FA2A4B08229A64284B042242
:10105000DA64284A224B1046194648231A4607F0FC
:10106000C9FA244B0C229A64224B0822DA64224AE1
:101070001D4B1046194648231A4607F0BBFA1E4B73
:1010800004229A641C4B0222DA641C4802F0A4F980
:10109000134802F0A1F9144802F09EF9002110480B
:1010A00002F03EFB0021104802F03AFB04210C48FC
:1010B00002F036FB08210A4802F032FB0C210848F6
:1010C00002F02EFB0421084802F02AFB00BF08377B
:1010D000BD4680BD94020020A4020020B400002080
:1010E000FC020020040100204403002054010020E1
:1010F000A4010020F401002044020020B4020020DA
:1011000080B584B000AFF8607A601A460B467B81E8
:1011100013463B817B8901221946F86801F09AFC4D
:101120003B8901221946786801F094FC00BF0A4B04
:101130001B685B6A0A2BFAD97B8900221946F8687A
:1011400001F088FC3B8900221946786801F082FC96
:1011500000BF1037BD4680BDB402002080B400AF90
:10116000104B1B6805330022114619700D4B1B688C
:101170000433114619700B4B1B6803331146197069
:10118000084B1B68023311461970064B1B6801336C
:1011900011461970034B1B681A7000BFBD4680BC16
:1011A000704700BFA402002080B500AF034B0122AE
:1011B0001A70FFF7D3FF00BF80BD00BFAE02002052
:1011C00080B500AF034B02221A70FFF7C7FF00BFC4
:1011D00080BD00BFAE02002080B500AF034B0322EC
:1011E0001A70FFF7BBFF00BF80BD00BFAE0200203A
:1011F00080B500AF034B04221A70FFF7AFFF00BFAA
:1012000080BD00BFAE02002080B500AFFFF7A6FF93
:10121000024B00221A7000BF80BD00BFAE0200204A
:1012200080B582B000AF78607B681B68394A934212
:101230006BD1394B1B680133374A1360374B1B782E
:10124000012B15D1364B00225A70354B5A78344B4E
:101250001A70344B1B6800225A622023324A022142
:101260003148FFF74DFF2F4B1B6800225A624CE0BC
:101270002A4B1B78022B15D1294B0022DA70284B00
:10128000DA78274B9A70274B1B6800225A6210238A
:10129000264A20212548FFF733FF224B1B680022F6
:1012A0005A6232E01D4B1B78032B15D11C4B0022D8
:1012B0005A711B4B5A791A4B1A701A4B1B68002231
:1012C0005A620223194A02211748FFF719FF154BEA
:1012D0001B6800225A6218E0104B1B78042B14D1B3
:1012E0000F4B00221A710E4B1A790D4BDA700D4B11
:1012F0001B6800225A6210230C4A01210A48FFF79A
:10130000FFFE084B1B6800225A6200BF0837BD462B
:1013100080BD00BF002C0140B0020020AE020020C2
:10132000A8020020B4020020000C01400008014087
:1013300080B582B000AF78607B681A68424B1B684A
:101340009A420FD17B681B7F1A463F4BDB6C9A4257
:1013500008D13D4B9B6CDBB2002219463A4800F0A5
:10136000ABF86DE07B681A68384B1B689A420FD166
:101370007B681B7F1A46354BDB6C9A4208D1334B96
:101380009B6CDBB201221946304800F095F857E01B
:101390007B681A682E4B1B689A420FD17B681B7FB3
:1013A0001A462B4BDB6C9A4208D1294B9B6CDBB263
:1013B00002221946264800F07FF841E07B681A684F
:1013C000244B1B689A420FD17B681B7F1A46214B26
:1013D000DB6C9A4208D11F4B9B6CDBB2032219468F
:1013E0001C4800F069F82BE07B681A681A4B1B68F0
:1013F0009A420FD17B681B7F1A46174BDB6C9A42CF
:1014000008D1154B9B6CDBB204221946124800F040
:1014100053F815E07B681A68104B1B689A420FD18D
:101420007B681B7F1A460D4BDB6C9A4208D10B4B35
:101430009B6CDBB205221946084800F03DF8FFE737
:1014400000BF0837BD4680BDB40000200401002065
:1014500054010020A4010020F401002044020020D7
:1014600080B485B000AF03460A46FB801346BB80BC
:10147000FA88BB889A420DD9BA88FB88D31A9BB2E6
:10148000A3F55D63FB81FB890A4AA2FB03235B0989
:101490009BB20AE0BA88FB88D31A064A82FB031281
:1014A0001A445211DB17D31A9BB218461437BD46A3
:1014B00080BC704709CB3D8D90B585B000AF78609A
:1014C0000B46FB701346BB70BB78734AD35C002B92
:1014D00067D1FB781946786802F05CFD0246BB785C
:1014E00091B26E4A22F81310BB786B4A0121D15495
:1014F000FB78002B08D17B681B681A6A7B681B6825
:1015000022F00A021A621FE0FB78042B08D17B68E4
:101510001B681B6A7A68126823F0A003136213E049
:10152000FB78082B08D17B681B681B6A7A681268F5
:1015300023F40073136207E07B681B681B6A7A68F8
:10154000126823F400531362FB78002B08D17B68E8
:101550001B681A6A7B681B6842F002021A6296E0F6
:10156000FB78042B08D17B681B681B6A7A681268B9
:1015700043F0200313628AE0FB78082B08D17B68D4
:101580001B681B6A7A68126843F4007313627EE07A
:101590007B681B681B6A7A68126843F40053136205
:1015A00075E0BB783C4AD35C012B70D1FB781946BF
:1015B000786802F0EFFC0346FB81BB78374A32F8CB
:1015C0001300374B1A68BB785B00D418FB891946A7
:1015D000FFF746FF03462380FB78002B08D17B688A
:1015E0001B681A6A7B681B6822F00A021A621FE0F5
:1015F000FB78042B08D17B681B681B6A7A68126829
:1016000023F0A003136213E0FB78082B08D17B685A
:101610001B681B6A7A68126823F40073136207E080
:101620007B681B681B6A7A68126823F40053136294
:10163000FB78002B06D17B681A687B681B68126AEE
:101640001A6219E0FB78042B06D17B681B687A6864
:1016500012681B6A13620FE0FB78082B06D17B68C7
:101660001B687A6812681B6A136205E07B681B6856
:101670007A6812681B6A1362BB78074A0221D15448
:10168000084B1A68BB78134401221A70FFE700BFA9
:101690001437BD4690BD00BFA8020020980200206C
:1016A00094020020A402002080B400AF054B002269
:1016B0001A60054B1B6800225A6200BFBD4680BC01
:1016C000704700BFB0020020B402002080B400AF19
:1016D000034B00221A6000BFBD4680BC704700BFAC
:1016E000B002002080B483B000AF084B5A6A084BA8
:1016F0001B684FF2302101FB03F313447B607B68CE
:1017000018460C37BD4680BC704700BF002C014016
:10171000B002002080B500AF00F0D2FD00F04AF822
:1017200000F086FA00F0D8F800F086F800F064F9CE
:1017300000F0DEF900F052FA13491448FFF700FCFC
:10174000FEF706FDFFF79CFB502000F01BFE03F0A8
:101750002BFE0F4A00210F4803F08CFE03460E4A71
:1017600013600E4A00210E4803F084FE03460D4A22
:1017700013600D4A00210D4803F07CFE03460C4A1D
:10178000136003F043FEFEE72E0400202D0400202A
:10179000188700088D1D00081C0400203C870008E5
:1017A000D91D000820040020608700084D1E000895
:1017B0002404002080B590B000AF07F11803282260
:1017C0000021184606F092FE3B1D00221A605A6066
:1017D0009A60DA601A610223BB610123BB621023A5
:1017E000FB6202237B630023BB634FF46013FB6344
:1017F00007F11803184601F045F90346002B01D004
:1018000000F04CFB0F237B600223BB600023FB60D6
:101810004FF480633B6100237B613B1D022118462E
:1018200001F0B2FB0346002B01D000F037FB00BFF4
:101830004037BD4680BD000080B586B000AF07F1DF
:10184000080300221A605A609A60DA603B46002260
:101850001A605A601E4B1F4A1A601D4B3F225A6085
:101860001B4B00229A601A4B4FF23022DA60184B61
:1018700000221A61164B00225A61154B00229A6110
:10188000134801F00FFD0346002B01D000F006FBCA
:101890004FF48053BB6007F1080319460C4802F06F
:1018A000B1FA0346002B01D000F0F8FA00233B60A8
:1018B00000237B603B461946054802F07DFF034646
:1018C000002B01D000F0EAFA00BF1837BD4680BDFA
:1018D000B4020020002C014080B58AB000AF07F1AF
:1018E000180300221A605A609A60DA6007F1100348
:1018F00000221A605A603B4600221A605A609A60C1
:10190000DA603C4B4FF080421A603A4B3F225A60FB
:10191000384B00229A60374B4FF23022DA60354B59
:1019200000221A61334B00229A61324801F0BAFC5E
:101930000346002B01D000F0B1FA4FF48053BB6195
:1019400007F1180319462B4802F05CFA0346002BF6
:1019500001D000F0A3FA274801F08AFE0346002BCD
:1019600001D000F09BFA00233B6100237B6107F16B
:10197000100319461F4802F01FFF0346002B01D039
:1019800000F08CFA00233B6001237B600023BB60E6
:101990000023FB603B4600221946164802F0D4F8AB
:1019A0000346002B01D000F079FA3B460422194689
:1019B000104802F0C9F80346002B01D000F06EFA7F
:1019C0003B46082219460B4802F0BEF80346002B9E
:1019D00001D000F063FA3B460C221946054802F09C
:1019E000B3F80346002B01D000F058FA00BF2837A7
:1019F000BD4680BDFC02002080B58AB000AF07F173
:101A0000180300221A605A609A60DA6007F1100326
:101A100000221A605A603B4600221A605A609A609F
:101A2000DA60314B314A1A602F4B3F225A602E4BFD
:101A300000229A602C4B4FF23022DA602A4B0022AF
:101A40001A61294B00229A61274801F02BFC0346BA
:101A5000002B01D000F022FA4FF48053BB6107F154
:101A600018031946204802F0CDF90346002B01D097
:101A700000F014FA1C4801F0FBFD0346002B01D0D6
:101A800000F00CFA00233B6100237B6107F1100397
:101A90001946154802F090FE0346002B01D000F0D5
:101AA000FDF900233B6001237B600023BB60002322
:101AB000FB603B46002219460B4802F045F80346FE
:101AC000002B01D000F0EAF93B46042219460648F3
:101AD00002F03AF80346002B01D000F0DFF900BF16
:101AE0002837BD4680BD00BF4403002000040040ED
:101AF00080B58EB000AF07F1280300221A605A604B
:101B00009A60DA6007F1200300221A605A603B1DD8
:101B100000221A605A609A60DA601A615A619A610A
:101B20002C4B2D4A1A602B4B3F225A60294B002226
:101B30009A60284B44F61F62DA60264B00221A6135
:101B4000244B00229A61234801F0ACFB0346002B92
:101B500001D000F0A3F94FF48053BB6207F12803D2
:101B600019461C4802F04EF90346002B01D000F044
:101B700095F9184801F082FC0346002B01D000F0D3
:101B80008DF900233B6200237B6207F12003194695
:101B9000104802F011FE0346002B01D000F07EF940
:101BA00060237B600023BB600023FB6000237B611C
:101BB0003B1D08221946074802F062F80346002B35
:101BC00001D000F06BF9034800F07EFA00BF38370F
:101BD000BD4680BD8C0300200008004080B500AFEA
:101BE000114B124A1A60104B4FF416525A600E4BAA
:101BF00000229A600C4B0022DA600B4B00221A6123
:101C0000094B0C225A61084B00229A61064B0022B4
:101C1000DA61054802F040FE0346002B01D000F0D7
:101C20003DF900BF80BD00BFD40300200044004048
:101C300080B586B000AF07F1080300221A605A6031
:101C40009A60DA60224B9B69214A43F00403936156
:101C50001F4B9B6903F004037B607B681C4B9B69F3
:101C60001B4A43F008039361194B9B6903F0080377
:101C70003B603B68002240F63261164800F0EAFE05
:101C800000224FF2F321144800F0E4FE40F63263E4
:101C9000BB600123FB6000233B6102237B6107F1F2
:101CA000080319460B4800F051FD4FF2F323BB60C7
:101CB0000123FB6000233B6102237B6107F10803E2
:101CC0001946054800F042FD00BF1837BD4680BDEB
:101CD0000010024000080140000C014080B582B0B5
:101CE00000AF78607B681B68224A93423ED1224B4A
:101CF00001221A70FFF740F903461A461F4B1A706B
:101D00001E4B1B78DBB2572B09D10120FFF7E4F8FB
:101D10001B4B1B680221184603F056FC21E0174BB1
:101D20001B78DBB2552B09D10220FFF7D5F8144BF5
:101D30001B680221184603F047FC12E00F4B1B788A
:101D4000DBB2532B0DD00D4B1B78DBB24E2B08D0E2
:101D50000020FFF7C1F80A4B1B680421184603F066
:101D600033FC01220749084802F0E6FD00BF0837AE
:101D7000BD4680BD004400402D0400202C040020FE
:101D8000280400202E040020D403002080B582B057
:101D900000AF78600E4B18684FF0FF33012204212A
:101DA00003F0AEFC0DE00B4B1B78DBB21846FEF7E0
:101DB000F5F9FEF7ADFB064B1B680421184603F04E
:101DC0005BFCFFF799F80346002BECD0E2E700BF7D
:101DD000280400202C04002080B582B000AF786079
:101DE000184B18684FF0FF330122022103F088FCE2
:101DF000FFF782F803461A46134B1A70124B1B78F2
:101E0000DBB2012B04D0104B1B78DBB2022B08D1C4
:101E1000FFF702F80B4B1B680221184603F02CFC5D
:101E20000FE0094B1B78DBB2032B04D0064B1B7869
:101E3000DBB2042BD4D1034B1B680321184603F0FB
:101E4000C3FBCDE7280400202F04002080B582B01A
:101E500000AF7860104B18684FF0FF330122032168
:101E600003F04EFC0DE0FEF7CBFE0B4B1B6803218D
:101E7000184603F001FC084B1B680221184603F0CA
:101E8000FBFBFFF739F80346032BECD0FFF734F8E0
:101E90000346022BE7D0DDE72804002080B400AF22
:101EA00072B600BFFEE7000080B584B000AF184BEB
:101EB0009B69174A43F001039361154B9B6903F03B
:101EC0000103BB60BB68124BDB69114A43F08053CE
:101ED000D3610F4BDB6903F080537B607B6800228A
:101EE0000F216FF0010000F048FB0A4B5B68FB60BC
:101EF000FB6823F0E063FB60FB6843F00073FB606A
:101F0000044AFB68536000BF1037BD4680BD00BF68
:101F1000001002400000014080B58EB000AF786034
:101F200007F1240300221A605A609A60DA607B6825
:101F30001B685E4A934214D15D4B9B695C4A43F433
:101F4000006393615A4B9B6903F400633B623B6AF5
:101F500000220F21192000F010FB192000F029FBAE
:101F6000A0E07B681B68B3F1804F58D1504BDB6910
:101F70004F4A43F00103D3614D4BDB6903F001038A
:101F8000FB61FB694A4B9B69494A43F00803936133
:101F9000474B9B6903F00803BB61BB69444B9B69DA
:101FA000434A43F004039361414B9B6903F00403EC
:101FB0007B617B6940F608437B620023BB620023A0
:101FC000FB6207F1240319463A4800F0BFFB4FF4C7
:101FD00000437B620023BB620023FB6207F1240302
:101FE0001946354800F0B2FB344B5B687B637B6B72
:101FF00023F440737B637B6B43F0E0637B637B6B19
:1020000043F440737B632D4A7B6B536000220521B0
:102010001C2000F0B2FA1C2000F0CBFA42E07B68F2
:102020001B68274A93422CD1214BDB69204A43F09D
:102030000203D3611E4BDB6903F002033B613B6982
:102040001B4B9B691A4A43F004039361184B9B692D
:1020500003F00403FB60FB68C0237B620023BB62C8
:102060000023FB6207F124031946134800F06EFBBE
:10207000002205211D2000F080FA1D2000F099FAB1
:1020800010E07B681B680F4A93420BD1084BDB6959
:10209000074A43F00403D361054BDB6903F00403F3
:1020A000BB60BB6800BF3837BD4680BD002C014017
:1020B00000100240000C01400008014000000140F7
:1020C000000400400008004080B588B000AF786090
:1020D00007F1100300221A605A609A60DA607B6888
:1020E0001B68104A934218D10F4B9B690E4A43F06C
:1020F000080393610C4B9B6903F00803FB60FB68CA
:102100004FF480733B6102237B610223FB6107F183
:1021100010031946054800F019FB00BF2037BD46E3
:1021200080BD00BF0008004000100240000C0140CC
:1021300080B588B000AF786007F1100300221A6004
:102140005A609A60DA607B681B681F4A934237D1F5
:102150001E4BDB691D4A43F40033D3611B4BDB6923
:1021600003F40033FB60FB68184B9B69174A43F08C
:1021700004039361154B9B6903F00403BB60BB68C8
:1021800004233B6102237B610323FB6107F11003FE
:1021900019460F4800F0DAFA08233B6100237B61FF
:1021A0000023BB6107F110031946094800F0CEFA7D
:1021B00000220521262000F0E0F9262000F0F9F9A0
:1021C00000BF2037BD4680BD0044004000100240E3
:1021D0000008014080B400AFFEE780B400AFFEE726
:1021E00080B400AFFEE780B400AFFEE780B400AF7C
:1021F000FEE780B400AF00BFBD4680BC704780B52D
:1022000000AF00F0A3F805F07FF90346012B01D0E1
:1022100005F012FF00BF80BD80B500AF024801F09D
:102220008BFB00BF80BD00BFB402002080B500AFB3
:10223000024801F081FB00BF80BD00BFFC0200200E
:1022400080B500AF024801F077FB00BF80BD00BF42
:102250004403002080B500AF024802F093FB00BFAA
:1022600080BD00BFD403002080B400AF00BFBD46D6
:1022700080BC7047FFF7F8FF0B480C490C4A00235D
:1022800002E0D458C4500433C4188C42F9D3094A2C
:10229000094C002301E013600432A242FBD306F094
:1022A00083F9FFF737FA7047000000207400002020
:1022B000B887000874000020643A0020FEE70000A0
:1022C00080B500AF084B1B68074A43F0100313604A
:1022D000032000F047F90F2000F008F8FFF7E4FDB5
:1022E0000023184680BD00BF0020024080B582B0A8
:1022F00000AF7860124B1A68124B1B7819464FF4E6
:102300007A73B3FBF1F3B2FBF3F3184600F05FF915
:102310000346002B01D001230EE07B680F2B0AD867
:10232000002279684FF0FF3000F027F9064A7B68F9
:102330001360002300E0012318460837BD4680BD26
:10234000140000201C0000201800002080B400AF02
:10235000054B1B781A46054B1B681344034A136050
:1023600000BFBD4680BC70471C0000203004002028
:1023700080B400AF024B1B681846BD4680BC704756
:102380003004002080B584B000AF7860FFF7F0FF24
:10239000B8607B68FB60FB68B3F1FF3F05D00A4B78
:1023A0001B781A46FB681344FB6000BFFFF7E0FF91
:1023B0000246BB68D31AFA689A42F7D800BF00BF3A
:1023C0001037BD4680BD00BF1C00002080B485B022
:1023D00000AF78607B6803F00703FB600C4BDB68A1
:1023E000BB60BA684FF6FF031340BB60FB681A027C
:1023F000BB68134343F0BF6343F40033BB60044A3C
:10240000BB68D36000BF1437BD4680BC704700BFB7
:1024100000ED00E080B400AF044BDB681B0A03F062
:1024200007031846BD4680BC704700BF00ED00E0C2
:1024300080B483B000AF0346FB7197F90730002BDF
:102440000BDBFB7903F01F02064997F907305B09A4
:10245000012000FA02F241F8232000BF0C37BD46EC
:1024600080BC704700E100E080B483B000AF034659
:102470003960FB7197F90730002B0ADB3B68DAB251
:102480000C4997F907301201D2B20B4483F80023AC
:102490000AE03B68DAB20849FB7903F00F03043B1A
:1024A0001201D2B20B441A7600BF0C37BD4680BC75
:1024B000704700BF00E100E000ED00E080B489B0AB
:1024C00000AFF860B9607A60FB6803F00703FB6156
:1024D000FB69C3F10703042B28BF0423BB61FB691D
:1024E0000433062B02D9FB69033B00E000237B6128
:1024F0004FF0FF32BB6902FA03F3DA43BB681A40BC
:102500007B699A404FF0FF317B6901FA03F3D943AD
:102510007B680B40134318462437BD4680BC704788
:1025200080B582B000AF78607B68013BB3F1807FFB
:1025300001D301230FE00A4A7B68013B53600F215E
:102540004FF0FF30FFF790FF054B00229A60044BDD
:1025500007221A60002318460837BD4680BD00BF19
:1025600010E000E080B582B000AF78607868FFF7D7
:102570002DFF00BF0837BD4680BD80B586B000AFD7
:102580000346B9607A60FB7300237B61FFF742FF6B
:1025900078617A68B9687869FFF790FF024697F921
:1025A0000F3011461846FFF75FFF00BF1837BD46D2
:1025B00080BD80B582B000AF0346FB7197F907304C
:1025C0001846FFF735FF00BF0837BD4680BD80B510
:1025D00082B000AF78607868FFF7A2FF0346184624
:1025E0000837BD4680BD80B485B000AF7860002359
:1025F000FB737B6893F82130DBB2022B08D07B6839
:1026000004229A637B68002283F82020012320E0C3
:102610007B681B681A687B681B6822F00E021A60D0
:102620007B681B681A687B681B6822F001021A60CD
:102630007B681A6C7B68DB6B012101FA02F25A603D
:102640007B68012283F821207B68002283F8202008
:10265000FB7B18461437BD4680BC704780B584B0FC
:1026600000AF78600023FB737B6893F82130DBB206
:10267000022B05D07B6804229A630123FB7351E08F
:102680007B681B681A687B681B6822F00E021A6060
:102690007B681B681A687B681B6822F001021A605D
:1026A0007B681B68224A934229D07B681B68214AB9
:1026B000934222D07B681B681F4A93421AD07B68E2
:1026C0001B681E4A934212D07B681B681C4A9342C7
:1026D0000AD07B681B681B4A934202D14FF48013D7
:1026E0000EE04FF080730BE04FF4803308E04FF4BE
:1026F000805305E04FF4807302E0102300E00123D3
:10270000114A53607B68012283F821207B680022F4
:1027100083F820207B685B6B002B03D07B685B6BAE
:1027200078689847FB7B18461037BD4680BD00BFD0
:10273000080002401C0002403000024044000240F9
:10274000580002406C0002400000024080B48BB090
:1027500000AF7860396000237B6200233B6269E14F
:1027600001227B6A02FA03F3FB613B681B68FA698A
:102770001340BB61BA69FB699A4240F058813B68DB
:102780005B689A4A93425ED0984A934275D8984AB9
:10279000934258D0964A93426FD8964A934252D069
:1027A000944A934269D8944A93424CD0924A9342B5
:1027B00063D8924A934246D0904A93425DD8122BF6
:1027C0002AD8122B59D801A252F823F04728000822
:1027D0002128000833280008752800087B280008F5
:1027E0007B2800087B2800087B2800087B2800083D
:1027F0007B2800087B2800087B2800087B2800082D
:102800007B2800087B2800087B2800087B2800081C
:10281000292800083D280008794A934213D02CE06B
:102820003B68DB683B6229E03B68DB6804333B6262
:1028300024E03B68DB6808333B621FE03B68DB68F1
:102840000C333B621AE03B689B68002B02D10423E7
:102850003B6213E03B689B68012B05D108233B6278
:102860007B68FA691A6109E008233B627B68FA69B0
:102870005A6103E000233B6200E000BFBB69FF2B0D
:1028800001D87B6801E07B6804337B61BB69FF2B67
:1028900002D87B6A9B0002E07B6A083B9B003B619D
:1028A0007B691A680F213B6901FA03F3DB431A4085
:1028B000396A3B6901FA03F31A437B691A603B6882
:1028C0005B6803F08053002B00F0B1804D4B9B6997
:1028D0004C4A43F0010393614A4B9B6903F00103A7
:1028E000BB60BB68484A7B6A9B08023352F82330BE
:1028F000FB607B6A03F003039B000F2202FA03F3E1
:10290000DB43FA681340FB607B68404A934213D074
:102910007B683F4A93420DD07B683E4A934207D082
:102920007B683D4A934201D1032306E0042304E07F
:10293000022302E0012300E000237A6A02F003028E
:1029400092009340FA681343FB602F497B6A9B080F
:102950000233FA6841F823203B685B6803F4801374
:10296000002B06D02D4B9A682C49BB6913438B6012
:1029700006E02A4B9A68BB69DB43284913408B6009
:102980003B685B6803F40013002B06D0234BDA6826
:102990002249BB691343CB6006E0204BDA68BB6970
:1029A000DB431E491340CB603B685B6803F4003394
:1029B000002B06D0194B5A681849BB6913434B606A
:1029C00006E0164B5A68BB69DB43144913404B6061
:1029D0003B685B6803F48033002B21D00F4B1A68EF
:1029E0000E49BB6913430B6021E000BF00003210A9
:1029F0000000311000002210000021100000121011
:102A000000001110001002400000014000080140C9
:102A1000000C01400010014000140140000401407E
:102A20000B4B1A68BB69DB43094913400B607B6A97
:102A300001337B623B681A687B6A22FA03F3002B3E
:102A40007FF48EAE00BF00BF2C37BD4680BC704700
:102A50000004014080B483B000AF78600B467B80F7
:102A600013467B707B78002B03D07A887B681A61D1
:102A700003E07B881A047B681A6100BF0C37BD46EF
:102A800080BC704780B586B000AF78607B68002B53
:102A900001D1012372E27B681B6803F00103002B64
:102AA00000F08780924B5B6803F00C03042B0CD082
:102AB0008F4B5B6803F00C03082B12D18C4B5B68C7
:102AC00003F48033B3F5803F0BD1894B1B6803F4CB
:102AD0000033002B6CD07B685B68002B68D101232E
:102AE0004CE27B685B68B3F5803F06D1804B1B6886
:102AF0007F4A43F4803313602EE07B685B68002BD1
:102B00000CD17B4B1B687A4A23F480331360784BDB
:102B10001B68774A23F4802313601DE07B685B68A1
:102B2000B3F5A02F0CD1724B1B68714A43F480237C
:102B300013606F4B1B686E4A43F4803313600BE0E5
:102B40006B4B1B686A4A23F480331360684B1B6825
:102B5000674A23F4802313607B685B68002B13D0E3
:102B6000FFF706FC386108E0FFF702FC02463B690C
:102B7000D31A642B01D9032300E25D4B1B6803F4D5
:102B80000033002BF0D014E0FFF7F2FB386108E0CF
:102B9000FFF7EEFB02463B69D31A642B01D90323EE
:102BA000ECE1534B1B6803F40033002BF0D100E041
:102BB00000BF7B681B6803F00203002B63D04C4B03
:102BC0005B6803F00C03002B0BD0494B5B6803F0F0
:102BD0000C03082B1CD1464B5B6803F48033002B9D
:102BE00016D1434B1B6803F00203002B05D07B6812
:102BF0001B69012B01D00123C0E13D4B1B6823F071
:102C0000F8027B685B69DB00394913430B603AE0EB
:102C10007B681B69002B20D0364B01221A60FFF71E
:102C2000A7FB386108E0FFF7A3FB02463B69D31A14
:102C3000022B01D90323A1E12D4B1B6803F00203F2
:102C4000002BF0D02A4B1B6823F0F8027B685B69ED
:102C5000DB00274913430B6015E0264B00221A6066
:102C6000FFF786FB386108E0FFF782FB02463B690D
:102C7000D31A022B01D9032380E11D4B1B6803F0FB
:102C80000203002BF0D17B681B6803F00803002BC4
:102C90003AD07B689B69002B19D0174B01221A6030
:102CA000FFF766FB386108E0FFF762FB02463B690D
:102CB000D31A022B01D9032360E10D4B5B6A03F0A9
:102CC0000203002BF0D0012000F0CEFA1CE00A4BEA
:102CD00000221A60FFF74CFB38610FE0FFF748FB5A
:102CE00002463B69D31A022B08D9032346E100BFF1
:102CF000001002400000424280044242924B5B6A54
:102D000003F00203002BE9D17B681B6803F0040386
:102D1000002B00F0A6800023FB758B4BDB6903F0D2
:102D20008053002B0DD1884BDB69874A43F08053D9
:102D3000D361854BDB6903F08053BB60BB68012323
:102D4000FB75824B1B6803F48073002B18D17F4BFB
:102D50001B687E4A43F480731360FFF709FB3861F8
:102D600008E0FFF705FB02463B69D31A642B01D943
:102D7000032303E1754B1B6803F48073002BF0D031
:102D80007B68DB68012B06D16F4B1B6A6E4A43F0F0
:102D9000010313622DE07B68DB68002B0CD16A4BCA
:102DA0001B6A694A23F001031362674B1B6A664A78
:102DB00023F0040313621CE07B68DB68052B0CD155
:102DC000614B1B6A604A43F0040313625E4B1B6A4B
:102DD0005D4A43F0010313620BE05B4B1B6A5A4AE6
:102DE00023F001031362584B1B6A574A23F0040374
:102DF00013627B68DB68002B15D0FFF7B9FA3861E6
:102E00000AE0FFF7B5FA02463B69D31A41F288326D
:102E1000934201D90323B1E04B4B1B6A03F0020339
:102E2000002BEED014E0FFF7A3FA38610AE0FFF7B9
:102E30009FFA02463B69D31A41F28832934201D984
:102E400003239BE0404B1B6A03F00203002BEED1EF
:102E5000FB7D012B05D13C4BDB693B4A23F08053C2
:102E6000D3617B68DB69002B00F08780364B5B68A1
:102E700003F00C03082B61D07B68DB69022B46D181
:102E8000334B00221A60FFF773FA386108E0FFF74E
:102E90006FFA02463B69D31A022B01D903236DE076
:102EA000294B1B6803F00073002BF0D17B681B6A71
:102EB000B3F5803F08D1244B5B6823F400327B6874
:102EC0009B68214913434B601F4B5B6823F47412CA
:102ED0007B68196A7B685B6A0B431B4913434B6031
:102EE0001B4B01221A60FFF743FA386108E0FFF735
:102EF0003FFA02463B69D31A022B01D903233DE076
:102F0000114B1B6803F00073002BF0D035E0104B21
:102F100000221A60FFF72CFA386108E0FFF728FA60
:102F200002463B69D31A022B01D9032326E0064B44
:102F30001B6803F00073002BF0D11EE07B68DB6997
:102F4000012B07D1012319E000100240007000405E
:102F5000600042420B4B5B68FB60FB6803F480320D
:102F60007B681B6A9A4206D1FB6803F470127B6887
:102F70005B6A9A4201D0012300E00023184618370B
:102F8000BD4680BD0010024080B584B000AF7860BF
:102F900039607B68002B01D10123D0E06A4B1B68AC
:102FA00003F007033A689A4210D9674B1B6823F075
:102FB000070265493B6813430B60634B1B6803F0D2
:102FC00007033A689A4201D00123B8E07B681B6886
:102FD00003F00203002B20D07B681B6803F004037E
:102FE000002B05D0594B5B68584A43F4E0635360AB
:102FF0007B681B6803F00803002B05D0534B5B680C
:10300000524A43F460535360504B5B6823F0F00224
:103010007B689B684D4913434B607B681B6803F0DA
:103020000103002B40D07B685B68012B07D1474B25
:103030001B6803F40033002B15D101237FE07B686C
:103040005B68022B07D1414B1B6803F00073002B18
:1030500009D1012373E03D4B1B6803F00203002BF1
:1030600001D101236BE0394B5B6823F003027B68DD
:103070005B68364913434B60FFF77AF9F8600AE062
:10308000FFF776F90246FB68D31A41F28832934281
:1030900001D9032353E02D4B5B6803F00C027B68DE
:1030A0005B689B009A42EBD1274B1B6803F0070338
:1030B0003A689A4210D2244B1B6823F00702224937
:1030C0003B6813430B60204B1B6803F007033A680F
:1030D0009A4201D0012332E07B681B6803F00403AD
:1030E000002B08D0194B5B6823F4E0627B68DB6837
:1030F000164913434B607B681B6803F00803002BE1
:1031000009D0124B5B6823F460527B681B69DB00BB
:103110000E4913434B6000F021F802460B4B5B68ED
:103120001B0903F00F030A49CB5C22FA03F3094A97
:103130001360094B1B681846FFF7D8F800231846A0
:103140001037BD4680BD00BF002002400010024085
:1031500084870008140000201800002080B487B085
:1031600000AF0023FB600023BB6000237B610023D2
:103170007B6000233B611E4B5B68FB60FB6803F0D8
:103180000C03042B02D0082B03D027E0194B3B6122
:1031900027E0FB689B0C03F00F03174AD35C7B60AE
:1031A000FB6803F48033002B10D0114B5B685B0C81
:1031B00003F00103114AD35CBB607B680D4A03FB3B
:1031C00002F2BB68B2FBF3F37B6104E07B680C4A5C
:1031D00002FB03F37B617B693B6102E0054B3B61D2
:1031E00000BF3B6918461C37BD4680BC704700BF16
:1031F0000010024000127A009C870008AC8700088B
:1032000000093D0080B400AF024B1B681846BD4664
:1032100080BC70471400002080B500AFFFF7F2FFBC
:103220000246054B5B681B0A03F007030349CB5CAE
:1032300022FA03F3184680BD00100240948700086C
:1032400080B500AFFFF7DEFF0246054B5B68DB0A87
:1032500003F007030349CB5C22FA03F3184680BD51
:10326000001002409487000880B485B000AF7860F9
:103270000A4B1B680A4AA2FB03235B0A7A6802FB1B
:1032800003F3FB6000BFFB685A1EFA60002BF9D104
:1032900000BF00BF1437BD4680BC7047140000203B
:1032A000D34D621080B582B000AF78607B68002B90
:1032B00001D1012341E07B6893F83D30DBB2002B64
:1032C00006D17B68002283F83C207868FEF724FE54
:1032D0007B68022283F83D207B681A687B68043390
:1032E0001946104600F0B6FE7B68012283F846209E
:1032F0007B68012283F83E207B68012283F83F200F
:103300007B68012283F840207B68012283F84120FA
:103310007B68012283F842207B68012283F84320E6
:103320007B68012283F844207B68012283F84520D2
:103330007B68012283F83D20002318460837BD46EC
:1033400080BD000080B485B000AF78607B6893F8E2
:103350003D30DBB2012B01D0012332E07B68022239
:1033600083F83D207B681B68184A93420ED07B6827
:103370001B68B3F1804F09D07B681B68144A9342E5
:1033800004D07B681B68134A934211D17B681B6889
:103390009B6803F00703FB60FB68062B10D07B687B
:1033A0001B681A687B681B6842F001021A6007E01C
:1033B0007B681B681A687B681B6842F001021A6010
:1033C000002318461437BD4680BC7047002C0140CE
:1033D000000400400008004080B485B000AF786071
:1033E0007B6893F83D30DBB2012B01D001233AE03A
:1033F0007B68022283F83D207B681B68DA687B6863
:103400001B6842F00102DA607B681B68184A93422D
:103410000ED07B681B68B3F1804F09D07B681B68B6
:10342000144A934204D07B681B68134A934211D11B
:103430007B681B689B6803F00703FB60FB68062B37
:1034400010D07B681B681A687B681B6842F0010219
:103450001A6007E07B681B681A687B681B6842F08B
:1034600001021A60002318461437BD4680BC70471D
:10347000002C0140000400400008004080B582B0EC
:1034800000AF78607B68002B01D1012341E07B68AD
:1034900093F83D30DBB2002B06D17B68002283F825
:1034A0003C20786800F039F87B68022283F83D20E0
:1034B0007B681A687B6804331946104600F0CAFD21
:1034C0007B68012283F846207B68012283F83E2036
:1034D0007B68012283F83F207B68012283F840202B
:1034E0007B68012283F841207B68012283F8422017
:1034F0007B68012283F843207B68012283F8442003
:103500007B68012283F845207B68012283F83D20F7
:10351000002318460837BD4680BD80B483B000AF95
:10352000786000BF0C37BD4680BC704780B584B062
:1035300000AF786039603B68002B09D17B6893F855
:103540003E30DBB2012B14BF01230023DBB222E0AB
:103550003B68042B09D17B6893F83F30DBB2012B29
:1035600014BF01230023DBB215E03B68082B09D10F
:103570007B6893F84030DBB2012B14BF012300239A
:10358000DBB208E07B6893F84130DBB2012B14BF5B
:1035900001230023DBB2002B01D001235EE03B6856
:1035A000002B04D17B68022283F83E2013E03B68A5
:1035B000042B04D17B68022283F83F200BE03B6898
:1035C000082B04D17B68022283F8402003E07B684B
:1035D000022283F841207B681B6801223968184663
:1035E00001F0C5F87B681B681E4A934207D17B68CF
:1035F0001B685A6C7B681B6842F400425A647B6803
:103600001B68184A93420ED07B681B68B3F1804F49
:1036100009D07B681B68144A934204D07B681B68FE
:10362000124A934211D17B681B689B6803F0070321
:10363000FB60FB68062B10D07B681B681A687B68F0
:103640001B6842F001021A6007E07B681B681A6879
:103650007B681B6842F001021A600023184610378D
:10366000BD4680BD002C0140000400400008004021
:1036700080B582B000AF78607B68002B01D1012358
:1036800041E07B6893F83D30DBB2002B06D17B68CC
:10369000002283F83C20786800F039F87B68022229
:1036A00083F83D207B681A687B680433194610460E
:1036B00000F0D0FC7B68012283F846207B68012261
:1036C00083F83E207B68012283F83F207B6801223B
:1036D00083F840207B68012283F841207B68012227
:1036E00083F842207B68012283F843207B68012213
:1036F00083F844207B68012283F845207B680122FF
:1037000083F83D20002318460837BD4680BD80B4AD
:1037100083B000AF786000BF0C37BD4680BC7047F7
:1037200080B584B000AF786039600023FB733B68DC
:10373000002B04D17B6893F83E30DBB213E03B688A
:10374000042B04D17B6893F83F30DBB20BE03B687D
:10375000082B04D17B6893F84030DBB203E07B6830
:1037600093F84130DBB2BB733B68002B04D17B681C
:1037700093F84230DBB213E03B68042B04D17B6842
:1037800093F84330DBB20BE03B68082B04D17B6835
:1037900093F84430DBB203E07B6893F84530DBB24A
:1037A0007B73BB7B012B02D17B7B012B01D00123DF
:1037B000B8E03B68002B04D17B68022283F83E20EE
:1037C00013E03B68042B04D17B68022283F83F207E
:1037D0000BE03B68082B04D17B68022283F8402071
:1037E00003E07B68022283F841203B68002B04D170
:1037F0007B68022283F8422013E03B68042B04D14B
:103800007B68022283F843200BE03B68082B04D13D
:103810007B68022283F8442003E07B68022283F85D
:1038200045203B680C2B41D801A252F823F000BF81
:1038300065380008AD380008AD380008AD3800081C
:1038400077380008AD380008AD380008AD380008FA
:1038500089380008AD380008AD380008AD380008D8
:103860009B3800087B681B68DA687B681B6842F03D
:103870000202DA601DE07B681B68DA687B681B68FF
:1038800042F00402DA6014E07B681B68DA687B6847
:103890001B6842F00802DA600BE07B681B68DA689C
:1038A0007B681B6842F01002DA6002E00123FB73C0
:1038B00000BFFB7B002B34D17B681B680122396879
:1038C000184600F054FF7B681B68184A93420ED0DC
:1038D0007B681B68B3F1804F09D07B681B68144A72
:1038E000934204D07B681B68124A934211D17B68D3
:1038F0001B689B6803F00703BB60BB68062B10D0F6
:103900007B681B681A687B681B6842F001021A60BA
:1039100007E07B681B681A687B681B6842F001023D
:103920001A60FB7B18461037BD4680BD002C014055
:10393000000400400008004080B582B000AF78600D
:103940007B681B681B6903F00203022B22D17B6892
:103950001B68DB6803F00203022B1BD17B681B682A
:103960006FF002021A617B6801221A777B681B687C
:103970009B6903F00303002B03D07868FDF7D8FCA4
:1039800005E0786800F04AFB786800F050FB7B683F
:1039900000221A777B681B681B6903F00403042B61
:1039A00022D17B681B68DB6803F00403042B1BD166
:1039B0007B681B686FF004021A617B6802221A7729
:1039C0007B681B689B6903F44073002B03D0786805
:1039D000FDF7AEFC05E0786800F020FB786800F0A9
:1039E00026FB7B6800221A777B681B681B6903F043
:1039F0000803082B22D17B681B68DB6803F00803EF
:103A0000082B1BD17B681B686FF008021A617B686A
:103A100004221A777B681B68DB6903F00303002B21
:103A200003D07868FDF784FC05E0786800F0F6FACA
:103A3000786800F0FCFA7B6800221A777B681B68C4
:103A40001B6903F01003102B22D17B681B68DB6815
:103A500003F01003102B1BD17B681B686FF0100262
:103A60001A617B6808221A777B681B68DB6903F49C
:103A70004073002B03D07868FDF75AFC05E07868A6
:103A800000F0CCFA786800F0D2FA7B6800221A774E
:103A90007B681B681B6903F00103012B0ED17B6857
:103AA0001B68DB6803F00103012B07D17B681B68EF
:103AB0006FF001021A617868FDF7B2FB7B681B6842
:103AC0001B6903F08003802B0ED17B681B68DB68C9
:103AD00003F08003802B07D17B681B686FF08002A6
:103AE0001A61786800F0CFFE7B681B681B6903F0E1
:103AF0004003402B0ED17B681B68DB6803F040035A
:103B0000402B07D17B681B686FF040021A61786810
:103B100000F096FA7B681B681B6903F02003202BDA
:103B20000ED17B681B68DB6803F02003202B07D1D4
:103B30007B681B686FF020021A61786800F09AFEBB
:103B400000BF0837BD4680BD80B586B000AFF860C5
:103B5000B9607A600023FB75FB6893F83C30012B59
:103B600001D1022388E0FB68012283F83C207B68B6
:103B7000002B1BD1FB681868BB681968BB685A68C2
:103B8000BB68DB6800F050FCFB681B689A69FB6847
:103B90001B6822F00C029A61FB681B689969BB687C
:103BA0009A68FB681B680A439A6160E07B68042B93
:103BB0001CD1FB681868BB681968BB685A68BB6889
:103BC000DB6800F0B9FCFB681B689A69FB681B683E
:103BD00022F440629A61FB681B689969BB689B6824
:103BE0001A02FB681B680A439A6140E07B68082B55
:103BF0001BD1FB681868BB681968BB685A68BB684A
:103C0000DB6800F004FDFB681B68DA69FB681B6871
:103C100022F00C02DA61FB681B68D969BB689A68FC
:103C2000FB681B680A43DA6121E07B680C2B1CD11E
:103C3000FB681868BB681968BB685A68BB68DB68B2
:103C400000F020FDFB681B68DA69FB681B6822F442
:103C50004062DA61FB681B68D969BB689B681A021D
:103C6000FB681B680A43DA6101E00123FB75FB680E
:103C7000002283F83C20FB7D18461837BD4680BDE6
:103C800080B586B000AFF860B9607A600023FB753C
:103C9000FB6893F83C30012B01D10223AEE0FB68B6
:103CA000012283F83C207B680C2B00F29F8001A24C
:103CB00052F823F0E93C0008ED3D0008ED3D000816
:103CC000ED3D0008293D0008ED3D0008ED3D0008F0
:103CD000ED3D00086B3D0008ED3D0008ED3D00089E
:103CE000ED3D0008AB3D0008FB681B68B96818464D
:103CF00000F012FAFB681B689A69FB681B6842F0C7
:103D000008029A61FB681B689A69FB681B6822F0CD
:103D100004029A61FB681B689969BB681A69FB68B1
:103D20001B680A439A6164E0FB681B68B96818461F
:103D300000F058FAFB681B689A69FB681B6842F43C
:103D400000629A61FB681B689A69FB681B6822F431
:103D500080629A61FB681B689969BB681B691A02DB
:103D6000FB681B680A439A6143E0FB681B68B968FB
:103D7000184600F0A1FAFB681B68DA69FB681B684B
:103D800042F00802DA61FB681B68DA69FB681B68AD
:103D900022F00402DA61FB681B68D969BB681A6902
:103DA000FB681B680A43DA6123E0FB681B68B9689B
:103DB000184600F0EBFAFB681B68DA69FB681B68C1
:103DC00042F40062DA61FB681B68DA69FB681B6811
:103DD00022F48062DA61FB681B68D969BB681B69E1
:103DE0001A02FB681B680A43DA6102E00123FB75D3
:103DF00000BFFB68002283F83C20FB7D1846183783
:103E0000BD4680BD80B584B000AF786039600023C6
:103E1000FB737B6893F83C30012B01D10223B4E0A3
:103E20007B68012283F83C207B68022283F83D20D6
:103E30007B681B689B68BB60BB6823F07703BB6033
:103E4000BB6823F47F43BB607B681B68BA689A60D9
:103E50003B681B68B3F5005F3ED0B3F5005F00F22E
:103E60008780B3F5805F00F08680B3F5805F7FD8F0
:103E7000702B1AD0702B7BD8602B50D0602B77D84A
:103E8000502B3CD0502B73D8402B58D0402B6FD8A0
:103E9000302B64D0302B6BD8202B60D0202B67D8F0
:103EA000002B5CD0102B5AD062E07B6818683B680E
:103EB00099683B685A683B68DB6800F039FC7B68AE
:103EC0001B689B68BB60BB6843F07703BB607B6883
:103ED0001B68BA689A604FE07B6818683B6899680D
:103EE0003B685A683B68DB6800F022FC7B681B6813
:103EF0009A687B681B6842F480429A603CE07B6869
:103F000018683B6859683B68DB681A4600F0E6FAB7
:103F10007B681B685021184600F0F0FB2CE07B68A2
:103F200018683B6859683B68DB681A4600F040FB3C
:103F30007B681B686021184600F0E0FB1CE07B6892
:103F400018683B6859683B68DB681A4600F0C6FA97
:103F50007B681B684021184600F0D0FB0CE07B68B2
:103F60001A683B681B681946104600F0C7FB03E05F
:103F70000123FB7300E000BF7B68012283F83D2032
:103F80007B68002283F83C20FB7B18461037BD4637
:103F900080BD000080B485B000AF78603960002338
:103FA000FB603B680C2B31D801A252F823F000BF14
:103FB000E53F00080D4000080D4000080D400008D6
:103FC000EF3F00080D4000080D4000080D400008BC
:103FD000F93F00080D4000080D4000080D400008A2
:103FE000034000087B681B685B6BFB600FE07B682D
:103FF0001B689B6BFB600AE07B681B68DB6BFB60EC
:1040000005E07B681B681B6CFB6000E000BFFB6881
:1040100018461437BD4680BC704700BF80B483B0DB
:1040200000AF786000BF0C37BD4680BC704780B4DD
:1040300083B000AF786000BF0C37BD4680BC7047CE
:1040400080B483B000AF786000BF0C37BD4680BC41
:104050007047000080B485B000AF786039607B683D
:104060001B68FB607B68294A93420BD07B68B3F1E5
:10407000804F07D07B68264A934203D07B68254A4D
:10408000934208D1FB6823F07003FB603B685B68D8
:10409000FA681343FB607B681C4A93420BD07B6831
:1040A000B3F1804F07D07B68194A934203D07B68F5
:1040B000184A934208D1FB6823F44073FB603B68C5
:1040C000DB68FA681343FB60FB6823F080023B68FF
:1040D0005B691343FB607B68FA681A603B689A6807
:1040E0007B68DA623B681A687B689A627B68074A79
:1040F000934203D13B681A697B681A637B6801228B
:104100005A6100BF1437BD4680BC7047002C014087
:10411000000400400008004080B487B000AF786021
:1041200039607B681B6A7B617B681B6A23F0010234
:104130007B681A627B685B683B617B689B69FB609C
:10414000FB6823F07003FB60FB6823F00303FB6054
:104150003B681B68FA681343FB607B6923F002032A
:104160007B613B689B687A6913437B617B681C4A6F
:1041700093420CD17B6923F008037B613B68DB68C9
:104180007A6913437B617B6923F004037B617B685D
:10419000134A934211D13B6923F480733B613B691D
:1041A00023F400733B613B685B693A6913433B61ED
:1041B0003B689B693A6913433B617B683A695A6083
:1041C0007B68FA689A613B685A687B685A637B68C7
:1041D0007A691A6200BF1C37BD4680BC704700BFB9
:1041E000002C014080B487B000AF786039607B68F4
:1041F0001B6A7B617B681B6A23F010027B681A6272
:104200007B685B683B617B689B69FB60FB6823F4B0
:10421000E043FB60FB6823F44073FB603B681B6872
:104220001B02FA681343FB607B6923F020037B6168
:104230003B689B681B017A6913437B617B681D4A5D
:1042400093420DD17B6923F080037B613B68DB687F
:104250001B017A6913437B617B6923F040037B6117
:104260007B68144A934213D13B6923F480633B611A
:104270003B6923F400633B613B685B699B003A69DF
:1042800013433B613B689B699B003A6913433B6165
:104290007B683A695A607B68FA689A613B685A6839
:1042A0007B689A637B687A691A6200BF1C37BD46D7
:1042B00080BC7047002C014080B487B000AF7860AC
:1042C00039607B681B6A7B617B681B6A23F48072A0
:1042D0007B681A627B685B683B617B68DB69FB60BB
:1042E000FB6823F07003FB60FB6823F00303FB60B3
:1042F0003B681B68FA681343FB607B6923F4007317
:104300007B613B689B681B027A6913437B617B6816
:104310001D4A93420DD17B6923F400637B613B68A6
:10432000DB681B027A6913437B617B6923F480633A
:104330007B617B68144A934213D13B6923F4805319
:104340003B613B6923F400533B613B685B691B01A4
:104350003A6913433B613B689B691B013A6913430C
:104360003B617B683A695A607B68FA68DA613B684E
:104370005A687B68DA637B687A691A6200BF1C3707
:10438000BD4680BC704700BF002C014080B487B0A0
:1043900000AF786039607B681B6A3B617B681B6A91
:1043A00023F480527B681A627B685B687B617B6860
:1043B000DB69FB60FB6823F4E043FB60FB6823F4EC
:1043C0004073FB603B681B681B02FA681343FB6089
:1043D0003B6923F400533B613B689B681B033A69CC
:1043E00013433B617B680F4A934209D17B6923F4F5
:1043F00080437B613B685B699B017A6913437B6106
:104400007B687A695A607B68FA68DA613B685A6847
:104410007B681A647B683A691A6200BF1C37BD4624
:1044200080BC7047002C014080B487B000AFF860BA
:10443000B9607A603B60FB681B6A3B61FB681B6A82
:1044400023F00102FB681A62FB689B697B61FB68D1
:104450001F4A93420BD0FB68B3F1804F07D0FB6833
:104460001C4A934203D0FB681B4A934201D10123AB
:1044700000E00023002B08D07B6923F003037B615D
:104480007A697B6813437B6103E07B6943F0010336
:104490007B617B6923F0F0037B613B681B01DBB22E
:1044A0007A6913437B613B6923F00A033B61BB6874
:1044B00003F00A033A6913433B61FB687A699A6126
:1044C000FB683A691A6200BF1C37BD4680BC704762
:1044D000002C0140000400400008004080B487B078
:1044E00000AFF860B9607A60FB681B6A7B61FB68AB
:1044F0001B6A23F00102FB681A62FB689B693B613F
:104500003B6923F0F0033B617B681B013A6913436D
:104510003B617B6923F00A037B617A69BB681343C3
:104520007B61FB683A699A61FB687A691A6200BF2D
:104530001C37BD4680BC704780B487B000AFF860C0
:10454000B9607A603B60FB681B6A7B61FB681B6A31
:1045500023F01002FB681A62FB689B693B613B69B0
:1045600023F440733B617B681B023A6913433B6150
:104570003B6923F470433B613B681B039BB23A6980
:1045800013433B617B6923F0A0037B61BB681B0184
:1045900003F0A0037A6913437B61FB683A699A616F
:1045A000FB687A691A6200BF1C37BD4680BC704741
:1045B00080B487B000AFF860B9607A60FB681B6AAE
:1045C0007B61FB681B6A23F01002FB681A62FB68C0
:1045D0009B693B613B6923F470433B617B681B0330
:1045E0003A6913433B617B6923F0A0037B61BB689D
:1045F0001B017A6913437B61FB683A699A61FB6826
:104600007A691A6200BF1C37BD4680BC704780B40F
:1046100087B000AFF860B9607A603B60FB681B6AE6
:104620007B61FB681B6A23F48072FB681A62FB687B
:10463000DB693B613B6923F003033B613A697B68BB
:1046400013433B613B6923F0F0033B613B681B0173
:10465000DBB23A6913433B617B6923F400737B61EE
:10466000BB681B0203F400737A6913437B61FB6828
:104670003A69DA61FB687A691A6200BF1C37BD4685
:1046800080BC704780B487B000AFF860B9607A60D2
:104690003B60FB681B6A7B61FB681B6A23F48052EA
:1046A000FB681A62FB68DB693B613B6923F440737A
:1046B0003B617B681B023A6913433B613B6923F40E
:1046C00070433B613B681B039BB23A6913433B61F8
:1046D0007B6923F400537B61BB681B0303F4005325
:1046E0007A6913437B61FB683A69DA61FB687A692E
:1046F0001A6200BF1C37BD4680BC704780B485B0CD
:1047000000AF786039607B689B68FB60FB6823F0D2
:104710007003FB603A68FB68134343F00703FB60D8
:104720007B68FA689A6000BF1437BD4680BC70474A
:1047300080B487B000AFF860B9607A603B60FB6816
:104740009B687B617B6923F47F437B613B681A0232
:104750007B681A43BB6813437A6913437B61FB6828
:104760007A699A6000BF1C37BD4680BC704780B430
:1047700087B000AFF860B9607A60BB6803F01F03D0
:10478000012202FA03F37B61FB681A6A7B69DB434F
:104790001A40FB681A62FB681A6ABB6803F01F03C1
:1047A000796801FA03F31A43FB681A6200BF1C37E9
:1047B000BD4680BC7047000080B485B000AF786013
:1047C00039607B6893F83C30012B01D1022346E02D
:1047D0007B68012283F83C207B68022283F83D201D
:1047E0007B681B685B68FB607B681B689B68BB60C1
:1047F000FB6823F07003FB603B681B68FA68134397
:10480000FB607B681B68FA685A607B681B68164A05
:1048100093420ED07B681B68B3F1804F09D07B6850
:104820001B68124A934204D07B681B68104A93426B
:104830000CD1BB6823F08003BB603B685B68BA683F
:104840001343BB607B681B68BA689A607B6801226F
:1048500083F83D207B68002283F83C200023184623
:104860001437BD4680BC7047002C01400004004056
:104870000008004080B483B000AF786000BF0C3700
:10488000BD4680BC704780B483B000AF786000BF85
:104890000C37BD4680BC704780B582B000AF7860F1
:1048A0007B68002B01D1012342E07B6893F8413003
:1048B000DBB2002B06D17B68002283F840207868A9
:1048C000FDF736FC7B68242283F841207B681B6857
:1048D000DA687B681B6822F40052DA60786800F0BE
:1048E000D5FC7B681B681A697B681B6822F49042C0
:1048F0001A617B681B685A697B681B6822F02A0270
:104900005A617B681B68DA687B681B6842F4005256
:10491000DA607B6800225A647B68202283F8412099
:104920007B68202283F842207B6800225A630023A0
:1049300018460837BD4680BD80B584B000AFF8602A
:10494000B9601346FB80FB6893F84230DBB2202B42
:1049500012D1BB68002B02D0FB88002B01D10123B0
:104960000BE0FB6800221A63FB881A46B968F868F6
:1049700000F0B7FA034600E0022318461037BD46A0
:1049800080BD000080B5BAB000AF78607B681B685E
:104990001B68C7F8E4307B681B68DB68C7F8E03049
:1049A0007B681B685B69C7F8DC300023C7F8D83028
:1049B0000023C7F8D430D7F8E43003F00F03C7F86A
:1049C000D830D7F8D830002B0FD1D7F8E43003F027
:1049D0002003002B09D0D7F8E03003F02003002B90
:1049E00003D0786800F093FB5BE2D7F8D830002B57
:1049F00000F0DE80D7F8DC3003F00103002B06D195
:104A0000D7F8E03003F49073002B00F0D180D7F892
:104A1000E43003F00103002B0BD0D7F8E03003F4AF
:104A20008073002B05D07B685B6C43F001027B68D0
:104A30005A64D7F8E43003F00403002B0BD0D7F806
:104A4000DC3003F00103002B05D07B685B6C43F086
:104A500002027B685A64D7F8E43003F00203002BAB
:104A60000BD0D7F8DC3003F00103002B05D07B68B6
:104A70005B6C43F004027B685A64D7F8E43003F0BF
:104A80000803002B11D0D7F8E03003F02003002BEF
:104A900005D1D7F8DC3003F00103002B05D07B688B
:104AA0005B6C43F008027B685A647B685B6C002B8C
:104AB00000F0F281D7F8E43003F02003002B08D097
:104AC000D7F8E03003F02003002B02D0786800F024
:104AD0001EFB7B681B685B6903F04003002B14BF5F
:104AE00001230023DBB2C7F8D4307B685B6C03F092
:104AF0000803002B03D1D7F8D430002B4FD07868AF
:104B000000F028FA7B681B685B6903F04003002B08
:104B100041D07B681B681433C7F89C30D7F89C30B1
:104B200053E8003FC7F89830D7F8983023F0400397
:104B3000C7F8D0307B681B681433D7F8D020C7F88B
:104B4000A820C7F8A430D7F8A410D7F8A82041E8C7
:104B50000023C7F8A030D7F8A030002BD9D17B684C
:104B6000DB6B002B13D07B68DB6B7E4A5A637B6860
:104B7000DB6B1846FDF772FD0346002B16D07B68F1
:104B8000DB6B5B6B7A68D26B104698470EE07868F7
:104B900000F093F90AE0786800F08FF906E0786891
:104BA00000F08BF97B6800225A6475E100BF73E165
:104BB0007B681B6B012B40F04F81D7F8E43003F08A
:104BC0001003002B00F04881D7F8E03003F0100309
:104BD000002B00F041810023BB607B681B681B68D1
:104BE000BB607B681B685B68BB60BB687B681B68DD
:104BF0005B6903F04003002B00F0B6807B68DB6B41
:104C00001B685B68A7F8BE30B7F8BE30002B00F019
:104C100045817B689B8DB7F8BE209A4280F03E812B
:104C20007B68B7F8BE20DA857B68DB6B9B69202B3D
:104C300000F088807B681B680C33C7F88830D7F891
:104C4000883053E8003FC7F88430D7F8843023F425
:104C50008073C7F8B8307B681B680C33D7F8B8206E
:104C6000C7F89420C7F89030D7F89010D7F8942060
:104C700041E80023C7F88C30D7F88C30002BD9D10D
:104C80007B681B6814337B677B6F53E8003F3B678F
:104C90003B6F23F00103C7F8B4307B681B68143303
:104CA000D7F8B420C7F88020FB67F96FD7F88020C9
:104CB00041E80023BB67BB6F002BE1D17B681B6819
:104CC00014333B663B6E53E8003FFB65FB6D23F0FE
:104CD0004003C7F8B0307B681B681433D7F8B020A6
:104CE000FA66BB66B96EFA6E41E800237B667B6E9E
:104CF000002BE3D17B68202283F842207B680022CE
:104D00001A637B681B680C33FB64FB6C53E8003F41
:104D1000BB64BB6C23F01003C7F8AC307B681B6826
:104D20000C33D7F8AC20BA657B65796DBA6D41E874
:104D300000233B653B6D002BE3D17B68DB6B1846A2
:104D4000FDF751FC7B6802225A637B689A8D7B6871
:104D5000DB8D9BB2D31A9BB21946786800F0B6F887
:104D60009CE000BF195000087B689A8D7B68DB8D42
:104D70009BB2D31AA7F8CE307B68DB8D9BB2002B99
:104D800000F08E80B7F8CE30002B00F089807B6871
:104D90001B680C33BB63BB6B53E8003F7B637B6BCF
:104DA00023F49073C7F8C8307B681B680C33D7F8BE
:104DB000C8207A643B64396C7A6C41E80023FB6359
:104DC000FB6B002BE3D17B681B6814337B627B6A2F
:104DD00053E8003F3B623B6A23F00103C7F8C4304D
:104DE0007B681B681433D7F8C4203A63FB62F96A06
:104DF0003A6B41E80023BB62BB6A002BE3D17B68BE
:104E0000202283F842207B6800221A637B681B689B
:104E10000C333B613B6953E8003FFB60FB6823F0C8
:104E20001003C7F8C0307B681B680C33D7F8C0206C
:104E3000FA61BB61B969FA6941E800237B617B696A
:104E4000002BE3D17B6802225A63B7F8CE301946B3
:104E5000786800F03BF823E0D7F8E43003F08003F3
:104E6000002B09D0D7F8E03003F08003002B03D0EB
:104E7000786800F0E5F814E0D7F8E43003F0400378
:104E8000002B0ED0D7F8E03003F04003002B08D001
:104E9000786800F024F904E000BF02E000BF00E001
:104EA00000BFE837BD4680BD80B483B000AF7860F6
:104EB00000BF0C37BD4680BC704780B483B000AFE4
:104EC000786000BF0C37BD4680BC704780B483B0AB
:104ED00000AF78600B467B8000BF0C37BD4680BCBE
:104EE000704780B485B000AFF860B9601346FB80AE
:104EF000FB68BA689A62FB68FA889A85FB68FA8848
:104F0000DA85FB6800225A64FB68222283F842207B
:104F1000FB681B69002B07D0FB681B68DA68FB681D
:104F20001B6842F48072DA60FB681B685A69FB6890
:104F30001B6842F001025A61FB681B68DA68FB6873
:104F40001B6842F02002DA60002318461437BD4681
:104F500080BC704780B495B000AF78607B681B68F8
:104F60000C337B637B6B53E8003F3B633B6B23F469
:104F70009073FB647B681B680C33FA6C3A64FB63C8
:104F8000F96B3A6C41E80023BB63BB6B002BE5D1A6
:104F90007B681B6814333B623B6A53E8003FFB614C
:104FA000FB6923F00103BB647B681B681433BA6C94
:104FB000FA62BB62B96AFA6A41E800237B627B6AE3
:104FC000002BE5D17B681B6B012B19D17B681B681B
:104FD0000C33FB60FB6853E8003FBB60BB6823F009
:104FE00010037B647B681B680C337A6CBA617B614D
:104FF0007969BA6941E800233B613B69002BE5D13F
:105000007B68202283F842207B6800221A6300BF5D
:105010005437BD4680BC704780B584B000AF78601F
:105020007B685B6AFB60FB680022DA85FB68002214
:10503000DA84F868FFF741FF00BF1037BD4680BD36
:1050400080B485B000AF78607B6893F84130DBB204
:10505000212B3ED17B689B68B3F5805F14D17B68C0
:105060001B69002B10D17B681B6AFB60FB681B88E7
:105070001A467B681B68C2F308025A607B681B6A89
:105080009A1C7B681A6208E07B681B6A591C7A6864
:1050900011621A787B681B685A607B68DB8C9BB254
:1050A000013B9BB27A681946D184002B0FD17B68F3
:1050B0001B68DA687B681B6822F08002DA607B6814
:1050C0001B68DA687B681B6842F04002DA600023E4
:1050D00000E0022318461437BD4680BC704780B5F7
:1050E00082B000AF78607B681B68DA687B681B68F9
:1050F00022F04002DA607B68202283F84120786841
:10510000FFF7D2FE002318460837BD4680BD80B5A4
:105110008CB000AF78607B6893F84230DBB2222B12
:1051200040F0AE807B689B68B3F5805F17D17B68E9
:105130001B69002B13D10023FB627B689B6ABB6257
:105140007B681B685B689BB2C3F308039AB2BB6AB7
:105150001A807B689B6A9A1C7B689A6226E07B684F
:105160009B6AFB620023BB627B689B68B3F5805F30
:1051700007D07B689B68002B0AD17B681B69002BDA
:1051800006D17B681B685B68DAB2FB6A1A7008E0BC
:105190007B681B685B68DBB203F07F03DAB2FB6AF3
:1051A0001A707B689B6A5A1C7B689A627B68DB8DED
:1051B0009BB2013B9BB27A681946D185002B5DD129
:1051C0007B681B68DA687B681B6822F02002DA6063
:1051D0007B681B68DA687B681B6822F48072DA607F
:1051E0007B681B685A697B681B6822F001025A6160
:1051F0007B68202283F842207B6800225A637B6808
:105200001B6B012B35D17B6800221A637B681B68FE
:105210000C337B617B6953E8003F3B613B6923F0C2
:1052200010037B627B681B680C337A6A3A62FB610D
:10523000F9693A6A41E80023BB61BB69002BE5D1FB
:105240007B681B681B6803F01003102B0AD1002336
:10525000FB607B681B681B68FB607B681B685B6886
:10526000FB60FB687B689B8D19467868FFF72EFE14
:1052700002E07868FCF732FD002302E0002300E042
:10528000022318463037BD4680BD000080B584B08B
:1052900000AF78607B681B681B6923F440517B6812
:1052A000DA687B681B680A431A617B689A687B68C6
:1052B0001B691A437B685B691343BB607B681B688F
:1052C000DB6823F4B05323F00C037A681268B968E2
:1052D0000B43D3607B681B685B6923F440717B6878
:1052E0009A697B681B680A435A617B681B682C4A71
:1052F000934203D1FDF7A4FFF86002E0FDF78CFFB5
:10530000F860FA6813469B0013449A001A447B68BD
:105310005B689B00B2FBF3F3224AA2FB03235B0909
:105320001901FA6813469B0013449A001A447B68DB
:105330005B689B00B2FBF3F21A4BA3FB02035B0911
:10534000642000FB03F3D31A1B013233154AA2FB7E
:1053500003235B0903F0F0031944FA6813469B002A
:1053600013449A001A447B685B689B00B2FBF3F21B
:105370000C4BA3FB02035B09642000FB03F3D31A6D
:105380001B013233074AA2FB03235B0903F00F0220
:105390007B681B680A449A6000BF1037BD4680BD19
:1053A000003801401F85EB5180B485B000AFEFF3AA
:1053B0000583BB60BB68002B0FD1EFF310837B60CC
:1053C0007B68002B09D1104B1B68022B09D1EFF32E
:1053D00011833B603B68002B03D06FF00503FB603B
:1053E0000CE0094B1B68002B05D1074B01221A600A
:1053F0000023FB6002E04FF0FF33FB60FB681846C0
:105400001437BD4680BC70473404002080B584B09A
:1054100000AFEFF30583BB60BB68002B0FD1EFF348
:1054200010837B607B68002B09D1114B1B68022B1A
:1054300009D1EFF311833B603B68002B03D06FF081
:105440000503FB600EE00A4B1B68012B07D1084BDC
:1054500002221A6001F058FB0023FB6002E04FF0CB
:10546000FF33FB60FB6818461037BD4680BD00BFA8
:105470003404002080B592B004AFF860B9607A605F
:1054800000237B61EFF305837B627B6A002B40F096
:105490009480EFF310833B623B6A002B40F08D80D9
:1054A000484B1B68022B06D1EFF31183FB61FB69AC
:1054B000002B40F08280FB68002B7ED080233B6372
:1054C0001823FB620023FB7607F11B037B634FF07D
:1054D000FF33BB627B68002B45D07B681B68002BC9
:1054E00002D07B681B687B637B689B69002B02D0C2
:1054F0007B689B69FB62FB6A002B08D0FB6A382B38
:1055000005D87B685B6803F00103002B01D0002302
:1055100054E07B685B69002B03D07B685B699B0868
:105520003B637B689B68002B0ED07B68DB68A72BF6
:105530000AD97B681B69002B06D07B685B69002B4E
:1055400002D00123BB6210E07B689B68002B0CD16A
:105550007B68DB68002B08D17B681B69002B04D1BA
:105560000023BB6201E00023BB62BB6A012B10D1A8
:105570007B681B697A68926802920193FB6A0093C8
:10558000BB683A6B796BF86801F00EF903467B61F2
:1055900013E0BB6A002B10D13B6B9AB207F11403E6
:1055A0000193FB6A0093BB68796BF86801F058F9C6
:1055B0000346012B01D000237B617B6918463837F5
:1055C000BD4680BD3404002080B588B000AF78604F
:1055D00039607B68BB61BB69002B04D03B6803F07A
:1055E0007F43002B03D06FF00303FB613AE0EFF33E
:1055F00005837B617B69002B0FD1EFF310833B6147
:105600003B69002B09D11A4B1B68022B23D1EFF306
:105610001183FB60FB68002B1DD00023BB6007F1EA
:1056200008031A463968B86900F016FB0346002BD8
:1056300003D06FF00203FB6113E03B68FB61BB68C2
:10564000002B0ED00B4B4FF080521A60BFF34F8FE0
:10565000BFF36F8F05E03968B86900F036FAF8617A
:1056600000E000BFFB6918462037BD4680BD00BF83
:105670003404002004ED00E080B588B000AF78600D
:1056800039607B68BB61BB69002B04D03B6803F0C9
:105690007F43002B03D06FF00303FB6129E0EFF39E
:1056A00005837B617B69002B0FD1EFF310833B6196
:1056B0003B69002B09D1114B1B68022B14D1EFF36E
:1056C0001183FB60FB68002B0ED0B86900F0DAF99B
:1056D000F8613968B86900F0C1F90346002B08D1B8
:1056E0006FF00203FB6104E03968B86900F07EF9ED
:1056F000F861FB6918462037BD4680BD34040020A0
:1057000080B58EB002AFF860B9607A603B60FB682C
:105710003B623B6A002B04D0BB6803F07F43002B45
:1057200003D06FF003037B6259E0EFF30583FB6165
:10573000FB69002B0FD1EFF31083BB61BB69002B1A
:1057400009D1294B1B68022B09D1EFF311837B612F
:105750007B69002B03D06FF005037B623FE07B6821
:1057600003F00103002B02D00123FB6201E00023C0
:10577000FB627B6803F00203002B02D00023BB62B4
:1057800001E00123BB623B680093FB6ABA6AB96817
:10579000386A00F05DF878627B6803F00103002B43
:1057A0000ED0BA687B6A9A4219D03B68002B03D0AE
:1057B0006FF001037B6212E06FF002037B620EE088
:1057C000BA687B6A1340002B09D13B68002B03D0D9
:1057D0006FF001037B6202E06FF002037B627B6A81
:1057E00018463037BD4680BD3404002080B485B0F3
:1057F00000AFF860B9607A60FB68064A1A60BB685F
:10580000054A1A607B6880221A6000BF1437BD46C3
:1058100080BC704738040020E004002080B485B0CC
:1058200000AFF860B9607A60FB68074A1A60BB682D
:10583000064A1A607B684FF480721A6000BF143702
:10584000BD4680BC704700BFE006002088070020EE
:1058500080B590B000AFF860B9607A603B60FB68DB
:105860007B630023BB6300233B63FB68002B0AD1EF
:105870004FF0500383F31188BFF36F8FBFF34F8F47
:105880003B6200BFFEE7BB6803F07F43002B0AD0FA
:105890004FF0500383F31188BFF36F8FBFF34F8F27
:1058A000FB6100BFFEE7BB68002B0AD14FF050033D
:1058B00083F31188BFF36F8FBFF34F8FBB6100BFBE
:1058C000FEE701F021FE0346002B02D1BB6C002B4A
:1058D00001D1012300E00023002B0AD14FF0500337
:1058E00083F31188BFF36F8FBFF34F8F7B6100BFCE
:1058F000FEE701F079F97B6B1B68FB623A68B968D7
:10590000F86A00F087F9B862BB6A002B0ED0FB6A18
:10591000FB630023BB647B68002B28D07B6B1A6879
:10592000BB68DB431A407B6B1A6020E0BB6C002B2A
:1059300004D1FB6AFB6301233B6318E07B68002B07
:1059400003D0BB6B43F08073BB633B68002B03D079
:10595000BB6B43F08063BB637B6B181DBA68BB6B8A
:105960001343BA6C194601F03FFB0023FB6301F0BF
:1059700049F97862BB6C002B31D07B6A002B07D1D0
:10598000194B4FF080521A60BFF34F8FBFF36F8FE8
:1059900001F046FEF863FB6B03F00073002B1AD195
:1059A00002F0CCFA7B6B1B68FB633A68B968F86B52
:1059B00000F030F90346002B09D07B68002B06D09D
:1059C0007B6B1A68BB68DB431A407B6B1A60012350
:1059D0003B6302F0E3FAFB6B23F07F43FB63FB6B5B
:1059E00018464037BD4680BD04ED00E080B586B066
:1059F00000AF786039607B687B617B68002B0AD1DF
:105A00004FF0500383F31188BFF36F8FBFF34F8FB5
:105A1000FB6000BFFEE73B6803F07F43002B0AD02A
:105A20004FF0500383F31188BFF36F8FBFF34F8F95
:105A3000BB6000BFFEE702F081FA7B691B683B6137
:105A40007B691A683B68DB431A407B691A6002F085
:105A5000A5FA3B6918461837BD4680BD80B584B0AD
:105A600000AF7860396000233A687968044802F032
:105A700055F9F860FB6818461037BD4680BD00BF79
:105A8000FB5B000880B489B000AF78607B68FB6185
:105A9000EFF311824FF0500383F31188BFF36F8F40
:105AA000BFF34F8FFA60BB60FB68BB61FB691B688B
:105AB0007B61BB693B613B6983F3118800BF7B69F4
:105AC00018462437BD4680BC704780B58EB000AF05
:105AD0007860396000233B637B68BB620023FB6214
